{
    "contractName": "SimpleStorage",
    "abi": [
        {
            "inputs": [
                {
                    "internalType": "uint256",
                    "name": "_favoriteNumber",
                    "type": "uint256"
                }
            ],
            "name": "Store",
            "outputs": [],
            "stateMutability": "nonpayable",
            "type": "function"
        }
    ],
    "bytecode": "6080604052348015600f57600080fd5b50608d8061001e6000396000f3fe6080604052348015600f57600080fd5b506004361060285760003560e01c806369404ebd14602d575b600080fd5b603d6038366004603f565b600055565b005b600060208284031215605057600080fd5b503591905056fea2646970667358221220bb80149143e6ba528276ef476fdc270f4271ebb7931d13107d2558254b18528564736f6c63430008100033",
    "sourcePath": "/Users/furkan/Documents/GitHub/Solidity-Contract/contract-1/contract-2-basic-functions.sol",
    "compiler": {
        "name": "solc",
        "version": "0.8.16+commit.07a7930e"
    },
    "functionHashes": {
        "Store(uint256)": "69404ebd"
    },
    "gasEstimates": {
        "creation": {
            "codeDepositCost": "28200",
            "executionCost": "81",
            "totalCost": "28281"
        },
        "external": {
            "Store(uint256)": "22290"
        }
    }
}